{
  "transactions": [
    {
      "hash": "0xcf69fb453748d7429c7deba69cff2f849d5d2d54ec7bffb4e678f7ae5c07198f",
      "transactionType": "CALL",
      "contractName": null,
      "contractAddress": "0x1c475bb73d6804e3b223edfd1d2ea6a13ebe1754",
      "function": "setDestinationEid(uint32)",
      "arguments": [
        "40232"
      ],
      "transaction": {
        "from": "0xaa6816876280c5a685baf3d9c214a092c7f3f6ef",
        "to": "0x1c475bb73d6804e3b223edfd1d2ea6a13ebe1754",
        "gas": "0x9088",
        "value": "0x0",
        "input": "0x38224e2d0000000000000000000000000000000000000000000000000000000000009d28",
        "nonce": "0x78",
        "chainId": "0x66eee"
      },
      "additionalContracts": [],
      "isFixedGasLimit": false
    }
  ],
  "receipts": [
    {
      "status": "0x1",
      "cumulativeGasUsed": "0x3e9b8",
      "logs": [],
      "logsBloom": "0x00000000000000000000000000000000000000000000000000000000000000000000000000000000000000000000000000000000000000000000000000000000000000000000000000000000000000000000000000000000000000000000000000000000000000000000000000000000000000000000000000000000000000000000000000000000000000000000000000000000000000000000000000000000000000000000000000000000000000000000000000000000000000000000000000000000000000000000000000000000000000000000000000000000000000000000000000000000000000000000000000000000000000000000000000000000",
      "type": "0x2",
      "transactionHash": "0xcf69fb453748d7429c7deba69cff2f849d5d2d54ec7bffb4e678f7ae5c07198f",
      "transactionIndex": "0x3",
      "blockHash": "0xb4d712aede6378d1854fb9e8562525fd4ac292b0a34bfbeb46bd0b7889e29e4f",
      "blockNumber": "0x9fae215",
      "gasUsed": "0x65c8",
      "effectiveGasPrice": "0x5f5e100",
      "from": "0xaa6816876280c5a685baf3d9c214a092c7f3f6ef",
      "to": "0x1c475bb73d6804e3b223edfd1d2ea6a13ebe1754",
      "contractAddress": null,
      "gasUsedForL1": "0x0",
      "l1BlockNumber": "0x83bc6e",
      "timeboosted": false
    }
  ],
  "libraries": [],
  "pending": [],
  "returns": {},
  "timestamp": 1750946198,
  "chain": 421614,
  "commit": "509301b"
}