{
  "transactions": [
    {
      "hash": "0xe301c8ca2f44b9601a977be264d94e19184d705fb18bcd20d09a312f00004c1f",
      "transactionType": "CALL",
      "contractName": null,
      "contractAddress": "0x878d27d8c774fad49c327773836a42623ad80231",
      "function": "addSingleOracle(string,address[],string,string)",
      "arguments": [
        "general",
        "[0xaA6816876280c5A685Baf3D9c214A092c7f3F6Ef, 0xfD08836eeE6242092a9c869237a8d122275b024A, 0x1D06bb4395AE7BFe9264117726D069C251dC27f5]",
        "General Oracle",
        "QmHash123"
      ],
      "transaction": {
        "from": "0xaa6816876280c5a685baf3d9c214a092c7f3f6ef",
        "to": "0x878d27d8c774fad49c327773836a42623ad80231",
        "gas": "0x2e0ad",
        "value": "0x0",
        "input": "0x47ed8b6d000000000000000000000000000000000000000000000000000000000000008000000000000000000000000000000000000000000000000000000000000000c000000000000000000000000000000000000000000000000000000000000001400000000000000000000000000000000000000000000000000000000000000180000000000000000000000000000000000000000000000000000000000000000767656e6572616c000000000000000000000000000000000000000000000000000000000000000000000000000000000000000000000000000000000000000003000000000000000000000000aa6816876280c5a685baf3d9c214a092c7f3f6ef000000000000000000000000fd08836eee6242092a9c869237a8d122275b024a0000000000000000000000001d06bb4395ae7bfe9264117726d069c251dc27f5000000000000000000000000000000000000000000000000000000000000000e47656e6572616c204f7261636c650000000000000000000000000000000000000000000000000000000000000000000000000000000000000000000000000009516d486173683132330000000000000000000000000000000000000000000000",
        "nonce": "0x22e",
        "chainId": "0xaa37dc"
      },
      "additionalContracts": [],
      "isFixedGasLimit": false
    }
  ],
  "receipts": [
    {
      "status": "0x1",
      "cumulativeGasUsed": "0xac776",
      "logs": [],
      "logsBloom": "0x00000000000000000000000000000000000000000000000000000000000000000000000000000000000000000000000000000000000000000000000000000000000000000000000000000000000000000000000000000000000000000000000000000000000000000000000000000000000000000000000000000000000000000000000000000000000000000000000000000000000000000000000000000000000000000000000000000000000000000000000000000000000000000000000000000000000000000000000000000000000000000000000000000000000000000000000000000000000000000000000000000000000000000000000000000000",
      "type": "0x2",
      "transactionHash": "0xe301c8ca2f44b9601a977be264d94e19184d705fb18bcd20d09a312f00004c1f",
      "transactionIndex": "0x4",
      "blockHash": "0x1e3827ecd7376c99d9603d24a0570066bb708d32ff6271d73987723b138ecdc5",
      "blockNumber": "0x1d190f2",
      "gasUsed": "0x21558",
      "effectiveGasPrice": "0xf433a",
      "from": "0xaa6816876280c5a685baf3d9c214a092c7f3f6ef",
      "to": "0x878d27d8c774fad49c327773836a42623ad80231",
      "contractAddress": null,
      "l1BaseFeeScalar": "0x1db0",
      "l1BlobBaseFee": "0x1",
      "l1BlobBaseFeeScalar": "0xd2730",
      "l1Fee": "0x2a56",
      "l1GasPrice": "0x1c6",
      "l1GasUsed": "0xc14"
    }
  ],
  "libraries": [],
  "pending": [],
  "returns": {},
  "timestamp": 1752825232,
  "chain": 11155420,
  "commit": "647be7d"
}