{
  "transactions": [
    {
      "hash": "0xbd2b022e2fc6718fbdda70d3e3ac82f3f668304757e1f75b0ed0885c98b972ac",
      "transactionType": "CALL",
      "contractName": null,
      "contractAddress": "0x1999366b4a970c712ff417af1c4fe5fb14da359f",
      "function": "setPeer(uint32,bytes32)",
      "arguments": [
        "40161",
        "0x000000000000000000000000c7d443584e0ea17acc517ec55b2838900ffe19d7"
      ],
      "transaction": {
        "from": "0xaa6816876280c5a685baf3d9c214a092c7f3f6ef",
        "to": "0x1999366b4a970c712ff417af1c4fe5fb14da359f",
        "gas": "0x10006",
        "value": "0x0",
        "input": "0x3400288b0000000000000000000000000000000000000000000000000000000000009ce1000000000000000000000000c7d443584e0ea17acc517ec55b2838900ffe19d7",
        "nonce": "0x87",
        "chainId": "0xaa37dc"
      },
      "additionalContracts": [],
      "isFixedGasLimit": false
    }
  ],
  "receipts": [
    {
      "status": "0x1",
      "cumulativeGasUsed": "0x4d34f",
      "logs": [
        {
          "address": "0x1999366b4a970c712ff417af1c4fe5fb14da359f",
          "topics": [
            "0x238399d427b947898edb290f5ff0f9109849b1c3ba196a42e35f00c50a54b98b"
          ],
          "data": "0x0000000000000000000000000000000000000000000000000000000000009ce1000000000000000000000000c7d443584e0ea17acc517ec55b2838900ffe19d7",
          "blockHash": "0x8b2d9143829a1d3a89df3971c3581cd8e6131db59309cdf66402a0ed33eb7704",
          "blockNumber": "0x1c99f30",
          "transactionHash": "0xbd2b022e2fc6718fbdda70d3e3ac82f3f668304757e1f75b0ed0885c98b972ac",
          "transactionIndex": "0x2",
          "logIndex": "0x4",
          "removed": false
        }
      ],
      "logsBloom": "0x00000000000000000000000000000000000000000000000000000000000000000000000000000000000000000000000000000000000000001800000000000000000000000000000000000000000000000000000000000000000000000000000000000000000000000000000000000000000000000000000000000000000000000000000000000000000008000000000000000000000000000000000000000000000000000000000000000000000000000000000000000000000002000000000000000000000000000000000000000000000000000000000000040000000000000000000000000000000000000000000000000000000000000010000000000000",
      "type": "0x2",
      "transactionHash": "0xbd2b022e2fc6718fbdda70d3e3ac82f3f668304757e1f75b0ed0885c98b972ac",
      "transactionIndex": "0x2",
      "blockHash": "0x8b2d9143829a1d3a89df3971c3581cd8e6131db59309cdf66402a0ed33eb7704",
      "blockNumber": "0x1c99f30",
      "gasUsed": "0xb95c",
      "effectiveGasPrice": "0x30e3a",
      "from": "0xaa6816876280c5a685baf3d9c214a092c7f3f6ef",
      "to": "0x1999366b4a970c712ff417af1c4fe5fb14da359f",
      "contractAddress": null,
      "l1BaseFeeScalar": "0x1db0",
      "l1BlobBaseFee": "0x1",
      "l1BlobBaseFeeScalar": "0xd2730",
      "l1Fee": "0x8737f60b2",
      "l1GasPrice": "0xb1eb5130",
      "l1GasUsed": "0x640"
    }
  ],
  "libraries": [],
  "pending": [],
  "returns": {},
  "timestamp": 1751783948,
  "chain": 11155420,
  "commit": "4bb6b7b"
}