{
  "transactions": [
    {
      "hash": "0x7d3d5ef7c9efc636f23bf32a972d68c1e7086cabc9c75979fd58ccdde2f463a2",
      "transactionType": "CALL",
      "contractName": null,
      "contractAddress": "0xe1ba069cf6402c763097f3ce72c0ad973403c85b",
      "function": "setPeer(uint32,bytes32)",
      "arguments": [
        "40231",
        "0x0000000000000000000000005ea4bc548fedbdd7d5a5cb178f7bc0433fa34935"
      ],
      "transaction": {
        "from": "0xaa6816876280c5a685baf3d9c214a092c7f3f6ef",
        "to": "0xe1ba069cf6402c763097f3ce72c0ad973403c85b",
        "gas": "0x10006",
        "value": "0x0",
        "input": "0x3400288b0000000000000000000000000000000000000000000000000000000000009d270000000000000000000000005ea4bc548fedbdd7d5a5cb178f7bc0433fa34935",
        "nonce": "0x227",
        "chainId": "0xaa36a7"
      },
      "additionalContracts": [],
      "isFixedGasLimit": false
    },
    {
      "hash": "0x6196f77d995fea69fa871689863ad20b9d80185b03a22b030b3f07064fabe3cf",
      "transactionType": "CALL",
      "contractName": null,
      "contractAddress": "0xe1ba069cf6402c763097f3ce72c0ad973403c85b",
      "function": "setPeer(uint32,bytes32)",
      "arguments": [
        "40232",
        "0x0000000000000000000000008c47aa93ec73f686c94faff1dc3e8d6e5e22ce52"
      ],
      "transaction": {
        "from": "0xaa6816876280c5a685baf3d9c214a092c7f3f6ef",
        "to": "0xe1ba069cf6402c763097f3ce72c0ad973403c85b",
        "gas": "0x10006",
        "value": "0x0",
        "input": "0x3400288b0000000000000000000000000000000000000000000000000000000000009d280000000000000000000000008c47aa93ec73f686c94faff1dc3e8d6e5e22ce52",
        "nonce": "0x228",
        "chainId": "0xaa36a7"
      },
      "additionalContracts": [],
      "isFixedGasLimit": false
    }
  ],
  "receipts": [
    {
      "status": "0x1",
      "cumulativeGasUsed": "0xcaefff",
      "logs": [
        {
          "address": "0xe1ba069cf6402c763097f3ce72c0ad973403c85b",
          "topics": [
            "0x238399d427b947898edb290f5ff0f9109849b1c3ba196a42e35f00c50a54b98b"
          ],
          "data": "0x0000000000000000000000000000000000000000000000000000000000009d270000000000000000000000005ea4bc548fedbdd7d5a5cb178f7bc0433fa34935",
          "blockHash": "0x04bc0c10e8dbb2f03c529040414541f915f6a87b10c752c768e5aa4c3c2f4a82",
          "blockNumber": "0x84e3a2",
          "transactionHash": "0x7d3d5ef7c9efc636f23bf32a972d68c1e7086cabc9c75979fd58ccdde2f463a2",
          "transactionIndex": "0x70",
          "logIndex": "0xa8",
          "removed": false
        }
      ],
      "logsBloom": "0x00000000000000000000000000000000000000000000000000000000000000000000000800000000000000000000000000000000000000000800000000000000000000000000000000000000000000800000000000000000000000000000000000000000000000000000000000000000000000000000000000000000000000000000000000000000000000000000000000000000000000000000000000000000000000000000000000000000000000000000000000000000000082000000000000000000000000000000000000000000000000000000000000040000000000000000000000000000000000000000000000000000000000000000000000000000",
      "type": "0x2",
      "transactionHash": "0x7d3d5ef7c9efc636f23bf32a972d68c1e7086cabc9c75979fd58ccdde2f463a2",
      "transactionIndex": "0x70",
      "blockHash": "0x04bc0c10e8dbb2f03c529040414541f915f6a87b10c752c768e5aa4c3c2f4a82",
      "blockNumber": "0x84e3a2",
      "gasUsed": "0xb95c",
      "effectiveGasPrice": "0x22a332",
      "from": "0xaa6816876280c5a685baf3d9c214a092c7f3f6ef",
      "to": "0xe1ba069cf6402c763097f3ce72c0ad973403c85b",
      "contractAddress": null
    },
    {
      "status": "0x1",
      "cumulativeGasUsed": "0x1a9e37c",
      "logs": [
        {
          "address": "0xe1ba069cf6402c763097f3ce72c0ad973403c85b",
          "topics": [
            "0x238399d427b947898edb290f5ff0f9109849b1c3ba196a42e35f00c50a54b98b"
          ],
          "data": "0x0000000000000000000000000000000000000000000000000000000000009d280000000000000000000000008c47aa93ec73f686c94faff1dc3e8d6e5e22ce52",
          "blockHash": "0x80864b069e22cf8cfa252f57cb040b89aa2591cd8306df9b27862896af8bbdb4",
          "blockNumber": "0x84e3a3",
          "transactionHash": "0x6196f77d995fea69fa871689863ad20b9d80185b03a22b030b3f07064fabe3cf",
          "transactionIndex": "0x8f",
          "logIndex": "0xe0",
          "removed": false
        }
      ],
      "logsBloom": "0x00000000000000000000000000000000000000000000000000000000000000000000000800000000000000000000000000000000000000000800000000000000000000000000000000000000000000800000000000000000000000000000000000000000000000000000000000000000000000000000000000000000000000000000000000000000000000000000000000000000000000000000000000000000000000000000000000000000000000000000000000000000000082000000000000000000000000000000000000000000000000000000000000040000000000000000000000000000000000000000000000000000000000000000000000000000",
      "type": "0x2",
      "transactionHash": "0x6196f77d995fea69fa871689863ad20b9d80185b03a22b030b3f07064fabe3cf",
      "transactionIndex": "0x8f",
      "blockHash": "0x80864b069e22cf8cfa252f57cb040b89aa2591cd8306df9b27862896af8bbdb4",
      "blockNumber": "0x84e3a3",
      "gasUsed": "0xb95c",
      "effectiveGasPrice": "0x22224b",
      "from": "0xaa6816876280c5a685baf3d9c214a092c7f3f6ef",
      "to": "0xe1ba069cf6402c763097f3ce72c0ad973403c85b",
      "contractAddress": null
    }
  ],
  "libraries": [],
  "pending": [],
  "returns": {},
  "timestamp": 1751855473,
  "chain": 11155111,
  "commit": "d2b5e52"
}