{
  "transactions": [
    {
      "hash": "0x6f143bb4cc486c1f59a48bc7c273168d3bae58ac05607139f00b378674a7b476",
      "transactionType": "CALL",
      "contractName": "StringSender",
      "contractAddress": "0xc7d443584e0ea17acc517ec55b2838900ffe19d7",
      "function": "setPeer(uint32,bytes32)",
      "arguments": [
        "40231",
        "0x000000000000000000000000a299bf0bbf0124d49d672db7a35e397853cbf691"
      ],
      "transaction": {
        "from": "0xaa6816876280c5a685baf3d9c214a092c7f3f6ef",
        "to": "0xc7d443584e0ea17acc517ec55b2838900ffe19d7",
        "gas": "0x10006",
        "value": "0x0",
        "input": "0x3400288b0000000000000000000000000000000000000000000000000000000000009d27000000000000000000000000a299bf0bbf0124d49d672db7a35e397853cbf691",
        "nonce": "0x221",
        "chainId": "0xaa36a7"
      },
      "additionalContracts": [],
      "isFixedGasLimit": false
    },
    {
      "hash": "0xeb05bf78880a164f54187886ead0953cf652580f4901ffef012bd8892fb87bbd",
      "transactionType": "CALL",
      "contractName": "StringSender",
      "contractAddress": "0xc7d443584e0ea17acc517ec55b2838900ffe19d7",
      "function": "setPeer(uint32,bytes32)",
      "arguments": [
        "40232",
        "0x0000000000000000000000001999366b4a970c712ff417af1c4fe5fb14da359f"
      ],
      "transaction": {
        "from": "0xaa6816876280c5a685baf3d9c214a092c7f3f6ef",
        "to": "0xc7d443584e0ea17acc517ec55b2838900ffe19d7",
        "gas": "0x10006",
        "value": "0x0",
        "input": "0x3400288b0000000000000000000000000000000000000000000000000000000000009d280000000000000000000000001999366b4a970c712ff417af1c4fe5fb14da359f",
        "nonce": "0x222",
        "chainId": "0xaa36a7"
      },
      "additionalContracts": [],
      "isFixedGasLimit": false
    }
  ],
  "receipts": [
    {
      "status": "0x1",
      "cumulativeGasUsed": "0x1b2bf0a",
      "logs": [
        {
          "address": "0xc7d443584e0ea17acc517ec55b2838900ffe19d7",
          "topics": [
            "0x238399d427b947898edb290f5ff0f9109849b1c3ba196a42e35f00c50a54b98b"
          ],
          "data": "0x0000000000000000000000000000000000000000000000000000000000009d27000000000000000000000000a299bf0bbf0124d49d672db7a35e397853cbf691",
          "blockHash": "0xd5b711a1630cbcd74d017a670a6041774a6ae059ef3bdb565c89432affd4afb4",
          "blockNumber": "0x84cc60",
          "transactionHash": "0x6f143bb4cc486c1f59a48bc7c273168d3bae58ac05607139f00b378674a7b476",
          "transactionIndex": "0x16f",
          "logIndex": "0x221",
          "removed": false
        }
      ],
      "logsBloom": "0x00000000000000000000000000000800000000000000000000000000000000000000000000000000000000000000000000000000000000000800000000000000000000000000000000000000000000000000000000000000000000000000001000000000000000000000000000000000000000000000000000000000000000000000000000000000000000000000000000000000000000000000000000000000000000000000000000000000000000000000000000000000000002000000000000000000000000000000000000000000000000000000000000040000000000000000000000000000000000000000000000000004000000000000000000000000",
      "type": "0x2",
      "transactionHash": "0x6f143bb4cc486c1f59a48bc7c273168d3bae58ac05607139f00b378674a7b476",
      "transactionIndex": "0x16f",
      "blockHash": "0xd5b711a1630cbcd74d017a670a6041774a6ae059ef3bdb565c89432affd4afb4",
      "blockNumber": "0x84cc60",
      "gasUsed": "0xb95c",
      "effectiveGasPrice": "0xade6039a",
      "from": "0xaa6816876280c5a685baf3d9c214a092c7f3f6ef",
      "to": "0xc7d443584e0ea17acc517ec55b2838900ffe19d7",
      "contractAddress": null
    },
    {
      "status": "0x1",
      "cumulativeGasUsed": "0x1b37866",
      "logs": [
        {
          "address": "0xc7d443584e0ea17acc517ec55b2838900ffe19d7",
          "topics": [
            "0x238399d427b947898edb290f5ff0f9109849b1c3ba196a42e35f00c50a54b98b"
          ],
          "data": "0x0000000000000000000000000000000000000000000000000000000000009d280000000000000000000000001999366b4a970c712ff417af1c4fe5fb14da359f",
          "blockHash": "0xd5b711a1630cbcd74d017a670a6041774a6ae059ef3bdb565c89432affd4afb4",
          "blockNumber": "0x84cc60",
          "transactionHash": "0xeb05bf78880a164f54187886ead0953cf652580f4901ffef012bd8892fb87bbd",
          "transactionIndex": "0x170",
          "logIndex": "0x222",
          "removed": false
        }
      ],
      "logsBloom": "0x00000000000000000000000000000800000000000000000000000000000000000000000000000000000000000000000000000000000000000800000000000000000000000000000000000000000000000000000000000000000000000000001000000000000000000000000000000000000000000000000000000000000000000000000000000000000000000000000000000000000000000000000000000000000000000000000000000000000000000000000000000000000002000000000000000000000000000000000000000000000000000000000000040000000000000000000000000000000000000000000000000004000000000000000000000000",
      "type": "0x2",
      "transactionHash": "0xeb05bf78880a164f54187886ead0953cf652580f4901ffef012bd8892fb87bbd",
      "transactionIndex": "0x170",
      "blockHash": "0xd5b711a1630cbcd74d017a670a6041774a6ae059ef3bdb565c89432affd4afb4",
      "blockNumber": "0x84cc60",
      "gasUsed": "0xb95c",
      "effectiveGasPrice": "0xade6039a",
      "from": "0xaa6816876280c5a685baf3d9c214a092c7f3f6ef",
      "to": "0xc7d443584e0ea17acc517ec55b2838900ffe19d7",
      "contractAddress": null
    }
  ],
  "libraries": [],
  "pending": [],
  "returns": {},
  "timestamp": 1751783880,
  "chain": 11155111,
  "commit": "4bb6b7b"
}