{
  "transactions": [
    {
      "hash": "0x227b5a09b117d2f14fe1945b07aa6e169958211722e128e8efc816c810cca15a",
      "transactionType": "CALL",
      "contractName": null,
      "contractAddress": "0xc7d443584e0ea17acc517ec55b2838900ffe19d7",
      "function": "setPeer(uint32,bytes32)",
      "arguments": [
        "40231",
        "0x000000000000000000000000a299bf0bbf0124d49d672db7a35e397853cbf691"
      ],
      "transaction": {
        "from": "0xaa6816876280c5a685baf3d9c214a092c7f3f6ef",
        "to": "0xc7d443584e0ea17acc517ec55b2838900ffe19d7",
        "gas": "0x94a8",
        "value": "0x0",
        "input": "0x3400288b0000000000000000000000000000000000000000000000000000000000009d27000000000000000000000000a299bf0bbf0124d49d672db7a35e397853cbf691",
        "nonce": "0x225",
        "chainId": "0xaa36a7"
      },
      "additionalContracts": [],
      "isFixedGasLimit": false
    },
    {
      "hash": "0x14d255e78de9ba3520001b104b2372363066678600641af6291aa7ca043ef052",
      "transactionType": "CALL",
      "contractName": null,
      "contractAddress": "0xc7d443584e0ea17acc517ec55b2838900ffe19d7",
      "function": "setPeer(uint32,bytes32)",
      "arguments": [
        "40232",
        "0x0000000000000000000000001999366b4a970c712ff417af1c4fe5fb14da359f"
      ],
      "transaction": {
        "from": "0xaa6816876280c5a685baf3d9c214a092c7f3f6ef",
        "to": "0xc7d443584e0ea17acc517ec55b2838900ffe19d7",
        "gas": "0x94a8",
        "value": "0x0",
        "input": "0x3400288b0000000000000000000000000000000000000000000000000000000000009d280000000000000000000000001999366b4a970c712ff417af1c4fe5fb14da359f",
        "nonce": "0x226",
        "chainId": "0xaa36a7"
      },
      "additionalContracts": [],
      "isFixedGasLimit": false
    }
  ],
  "receipts": [
    {
      "status": "0x1",
      "cumulativeGasUsed": "0x2309c7c",
      "logs": [
        {
          "address": "0xc7d443584e0ea17acc517ec55b2838900ffe19d7",
          "topics": [
            "0x238399d427b947898edb290f5ff0f9109849b1c3ba196a42e35f00c50a54b98b"
          ],
          "data": "0x0000000000000000000000000000000000000000000000000000000000009d27000000000000000000000000a299bf0bbf0124d49d672db7a35e397853cbf691",
          "blockHash": "0x740d9ebe6b881c8cccc15dcb5e32f07add17c373dd8a74c6f22cb1baf2f2f7ce",
          "blockNumber": "0x84e397",
          "transactionHash": "0x227b5a09b117d2f14fe1945b07aa6e169958211722e128e8efc816c810cca15a",
          "transactionIndex": "0x101",
          "logIndex": "0x1ce",
          "removed": false
        }
      ],
      "logsBloom": "0x00000000000000000000000000000800000000000000000000000000000000000000000000000000000000000000000000000000000000000800000000000000000000000000000000000000000000000000000000000000000000000000001000000000000000000000000000000000000000000000000000000000000000000000000000000000000000000000000000000000000000000000000000000000000000000000000000000000000000000000000000000000000002000000000000000000000000000000000000000000000000000000000000040000000000000000000000000000000000000000000000000004000000000000000000000000",
      "type": "0x2",
      "transactionHash": "0x227b5a09b117d2f14fe1945b07aa6e169958211722e128e8efc816c810cca15a",
      "transactionIndex": "0x101",
      "blockHash": "0x740d9ebe6b881c8cccc15dcb5e32f07add17c373dd8a74c6f22cb1baf2f2f7ce",
      "blockNumber": "0x84e397",
      "gasUsed": "0x6ba0",
      "effectiveGasPrice": "0x1e1184",
      "from": "0xaa6816876280c5a685baf3d9c214a092c7f3f6ef",
      "to": "0xc7d443584e0ea17acc517ec55b2838900ffe19d7",
      "contractAddress": null
    },
    {
      "status": "0x1",
      "cumulativeGasUsed": "0x231081c",
      "logs": [
        {
          "address": "0xc7d443584e0ea17acc517ec55b2838900ffe19d7",
          "topics": [
            "0x238399d427b947898edb290f5ff0f9109849b1c3ba196a42e35f00c50a54b98b"
          ],
          "data": "0x0000000000000000000000000000000000000000000000000000000000009d280000000000000000000000001999366b4a970c712ff417af1c4fe5fb14da359f",
          "blockHash": "0x740d9ebe6b881c8cccc15dcb5e32f07add17c373dd8a74c6f22cb1baf2f2f7ce",
          "blockNumber": "0x84e397",
          "transactionHash": "0x14d255e78de9ba3520001b104b2372363066678600641af6291aa7ca043ef052",
          "transactionIndex": "0x102",
          "logIndex": "0x1cf",
          "removed": false
        }
      ],
      "logsBloom": "0x00000000000000000000000000000800000000000000000000000000000000000000000000000000000000000000000000000000000000000800000000000000000000000000000000000000000000000000000000000000000000000000001000000000000000000000000000000000000000000000000000000000000000000000000000000000000000000000000000000000000000000000000000000000000000000000000000000000000000000000000000000000000002000000000000000000000000000000000000000000000000000000000000040000000000000000000000000000000000000000000000000004000000000000000000000000",
      "type": "0x2",
      "transactionHash": "0x14d255e78de9ba3520001b104b2372363066678600641af6291aa7ca043ef052",
      "transactionIndex": "0x102",
      "blockHash": "0x740d9ebe6b881c8cccc15dcb5e32f07add17c373dd8a74c6f22cb1baf2f2f7ce",
      "blockNumber": "0x84e397",
      "gasUsed": "0x6ba0",
      "effectiveGasPrice": "0x1e1184",
      "from": "0xaa6816876280c5a685baf3d9c214a092c7f3f6ef",
      "to": "0xc7d443584e0ea17acc517ec55b2838900ffe19d7",
      "contractAddress": null
    }
  ],
  "libraries": [],
  "pending": [],
  "returns": {},
  "timestamp": 1751855331,
  "chain": 11155111,
  "commit": "d2b5e52"
}