{
  "transactions": [
    {
      "hash": "0x2a3024bf64262390a083c1f8d6531da4db8c35feca983d2174cab7cb1131abc2",
      "transactionType": "CALL",
      "contractName": null,
      "contractAddress": "0xa299bf0bbf0124d49d672db7a35e397853cbf691",
      "function": "setPeer(uint32,bytes32)",
      "arguments": [
        "40161",
        "0x000000000000000000000000c7d443584e0ea17acc517ec55b2838900ffe19d7"
      ],
      "transaction": {
        "from": "0xaa6816876280c5a685baf3d9c214a092c7f3f6ef",
        "to": "0xa299bf0bbf0124d49d672db7a35e397853cbf691",
        "gas": "0xfece",
        "value": "0x0",
        "input": "0x3400288b0000000000000000000000000000000000000000000000000000000000009ce1000000000000000000000000c7d443584e0ea17acc517ec55b2838900ffe19d7",
        "nonce": "0xe2",
        "chainId": "0x66eee"
      },
      "additionalContracts": [],
      "isFixedGasLimit": false
    }
  ],
  "receipts": [
    {
      "status": "0x1",
      "cumulativeGasUsed": "0x27ee6",
      "logs": [
        {
          "address": "0xa299bf0bbf0124d49d672db7a35e397853cbf691",
          "topics": [
            "0x238399d427b947898edb290f5ff0f9109849b1c3ba196a42e35f00c50a54b98b"
          ],
          "data": "0x0000000000000000000000000000000000000000000000000000000000009ce1000000000000000000000000c7d443584e0ea17acc517ec55b2838900ffe19d7",
          "blockHash": "0x5f5c95d4e9d08d064441ace9fa16c6c645c7bd13c8f7caad645ad6065c96de61",
          "blockNumber": "0xa2d11d4",
          "transactionHash": "0x2a3024bf64262390a083c1f8d6531da4db8c35feca983d2174cab7cb1131abc2",
          "transactionIndex": "0x2",
          "logIndex": "0x3",
          "removed": false
        }
      ],
      "logsBloom": "0x00000000000000000000000000000000000000000000000000000000000000000000000000000000000000000000000000000000000000000800000000000000000000000000000000000000000000000000000000000000000000000000000000000000000000000000000000000000000000000000000000000000000000000000000000010000000000000000000000000000000000000000000000000000000200000000000000000000000000000000000000000000000002000000000000000000000000000000000000000000000000004000000000040000000000000000000000000000000000000000000000000000000000000000000000000000",
      "type": "0x2",
      "transactionHash": "0x2a3024bf64262390a083c1f8d6531da4db8c35feca983d2174cab7cb1131abc2",
      "transactionIndex": "0x2",
      "blockHash": "0x5f5c95d4e9d08d064441ace9fa16c6c645c7bd13c8f7caad645ad6065c96de61",
      "blockNumber": "0xa2d11d4",
      "gasUsed": "0xc0b0",
      "effectiveGasPrice": "0x5f5e100",
      "from": "0xaa6816876280c5a685baf3d9c214a092c7f3f6ef",
      "to": "0xa299bf0bbf0124d49d672db7a35e397853cbf691",
      "contractAddress": null,
      "gasUsedForL1": "0x754",
      "l1BlockNumber": "0x84cc63",
      "timeboosted": false
    }
  ],
  "libraries": [],
  "pending": [],
  "returns": {},
  "timestamp": 1751783920,
  "chain": 421614,
  "commit": "4bb6b7b"
}