{
  "transactions": [
    {
      "hash": "0x4b4ca215b601d30752bdec9504a19db581e37e0cbed07ceb5d871cf501041234",
      "transactionType": "CALL",
      "contractName": null,
      "contractAddress": "0x5ea4bc548fedbdd7d5a5cb178f7bc0433fa34935",
      "function": "setPeer(uint32,bytes32)",
      "arguments": [
        "40161",
        "0x000000000000000000000000e1ba069cf6402c763097f3ce72c0ad973403c85b"
      ],
      "transaction": {
        "from": "0xaa6816876280c5a685baf3d9c214a092c7f3f6ef",
        "to": "0x5ea4bc548fedbdd7d5a5cb178f7bc0433fa34935",
        "gas": "0xf2ec",
        "value": "0x0",
        "input": "0x3400288b0000000000000000000000000000000000000000000000000000000000009ce1000000000000000000000000e1ba069cf6402c763097f3ce72c0ad973403c85b",
        "nonce": "0xe5",
        "chainId": "0x66eee"
      },
      "additionalContracts": [],
      "isFixedGasLimit": false
    }
  ],
  "receipts": [
    {
      "status": "0x1",
      "cumulativeGasUsed": "0xb0e5e",
      "logs": [
        {
          "address": "0x5ea4bc548fedbdd7d5a5cb178f7bc0433fa34935",
          "topics": [
            "0x238399d427b947898edb290f5ff0f9109849b1c3ba196a42e35f00c50a54b98b"
          ],
          "data": "0x0000000000000000000000000000000000000000000000000000000000009ce1000000000000000000000000e1ba069cf6402c763097f3ce72c0ad973403c85b",
          "blockHash": "0x459b8d7c3849429012683241e26614d387ca2536d27c8180acffd7a8be245a15",
          "blockNumber": "0xa31642c",
          "transactionHash": "0x4b4ca215b601d30752bdec9504a19db581e37e0cbed07ceb5d871cf501041234",
          "transactionIndex": "0x2",
          "logIndex": "0x1",
          "removed": false
        }
      ],
      "logsBloom": "0x00000000000000000000000000000000000000000000120000000000000000000000000000000000000000000000000000000000000000000800000080000000000000000000000000000000000000000000000000000000000000000000000000000000000000000000000000000000000000000000000000000000000000000000000000000000000000000000000000000000000000000000000000000000000000000000000000000000000000000000000000000000000002000000000000000000000000000000000000000000000000000000000000040000000000000000000000000000000000000000000000000000000000000000000000000000",
      "type": "0x2",
      "transactionHash": "0x4b4ca215b601d30752bdec9504a19db581e37e0cbed07ceb5d871cf501041234",
      "transactionIndex": "0x2",
      "blockHash": "0x459b8d7c3849429012683241e26614d387ca2536d27c8180acffd7a8be245a15",
      "blockNumber": "0xa31642c",
      "gasUsed": "0xb95c",
      "effectiveGasPrice": "0x5f5e100",
      "from": "0xaa6816876280c5a685baf3d9c214a092c7f3f6ef",
      "to": "0x5ea4bc548fedbdd7d5a5cb178f7bc0433fa34935",
      "contractAddress": null,
      "gasUsedForL1": "0x0",
      "l1BlockNumber": "0x84e3a4",
      "timeboosted": false
    }
  ],
  "libraries": [],
  "pending": [],
  "returns": {},
  "timestamp": 1751855501,
  "chain": 421614,
  "commit": "d2b5e52"
}