{
  "transactions": [
    {
      "hash": "0xb109cd25a00c0d1494304edf6129a70320dc602cb437176cd48d1b3d32417db2",
      "transactionType": "CALL",
      "contractName": null,
      "contractAddress": "0xa299bf0bbf0124d49d672db7a35e397853cbf691",
      "function": "setPeer(uint32,bytes32)",
      "arguments": [
        "40161",
        "0x000000000000000000000000c7d443584e0ea17acc517ec55b2838900ffe19d7"
      ],
      "transaction": {
        "from": "0xaa6816876280c5a685baf3d9c214a092c7f3f6ef",
        "to": "0xa299bf0bbf0124d49d672db7a35e397853cbf691",
        "gas": "0x8daa",
        "value": "0x0",
        "input": "0x3400288b0000000000000000000000000000000000000000000000000000000000009ce1000000000000000000000000c7d443584e0ea17acc517ec55b2838900ffe19d7",
        "nonce": "0xe4",
        "chainId": "0x66eee"
      },
      "additionalContracts": [],
      "isFixedGasLimit": false
    }
  ],
  "receipts": [
    {
      "status": "0x1",
      "cumulativeGasUsed": "0x4258d",
      "logs": [
        {
          "address": "0xa299bf0bbf0124d49d672db7a35e397853cbf691",
          "topics": [
            "0x238399d427b947898edb290f5ff0f9109849b1c3ba196a42e35f00c50a54b98b"
          ],
          "data": "0x0000000000000000000000000000000000000000000000000000000000009ce1000000000000000000000000c7d443584e0ea17acc517ec55b2838900ffe19d7",
          "blockHash": "0xb235241b0620724cbd2c40dd5132cbc429ecca9b17148af5ef08767cd14e5cdc",
          "blockNumber": "0xa31621e",
          "transactionHash": "0xb109cd25a00c0d1494304edf6129a70320dc602cb437176cd48d1b3d32417db2",
          "transactionIndex": "0x3",
          "logIndex": "0x8",
          "removed": false
        }
      ],
      "logsBloom": "0x00000000000000000000000000000000000000000000000000000000000000000000000000000000000000000000000000000000000000000800000000000000000000000000000000000000000000000000000000000000000000000000000000000000000000000000000000000000000000000000000000000000000000000000000000010000000000000000000000000000000000000000000000000000000200000000000000000000000000000000000000000000000002000000000000000000000000000000000000000000000000004000000000040000000000000000000000000000000000000000000000000000000000000000000000000000",
      "type": "0x2",
      "transactionHash": "0xb109cd25a00c0d1494304edf6129a70320dc602cb437176cd48d1b3d32417db2",
      "transactionIndex": "0x3",
      "blockHash": "0xb235241b0620724cbd2c40dd5132cbc429ecca9b17148af5ef08767cd14e5cdc",
      "blockNumber": "0xa31621e",
      "gasUsed": "0x6ba0",
      "effectiveGasPrice": "0x5f5e100",
      "from": "0xaa6816876280c5a685baf3d9c214a092c7f3f6ef",
      "to": "0xa299bf0bbf0124d49d672db7a35e397853cbf691",
      "contractAddress": null,
      "gasUsedForL1": "0x0",
      "l1BlockNumber": "0x84e399",
      "timeboosted": false
    }
  ],
  "libraries": [],
  "pending": [],
  "returns": {},
  "timestamp": 1751855369,
  "chain": 421614,
  "commit": "d2b5e52"
}