{
  "transactions": [
    {
      "hash": "0x2558a5c9eb7074b5a4434e2028d1d210dc11371b423a2159bdc9c8f5c36338bf",
      "transactionType": "CALL",
      "contractName": null,
      "contractAddress": "0x08f1785174f56600ba22f8d26067b19f4c3e4231",
      "function": "setPeer(uint32,bytes32)",
      "arguments": [
        "40232",
        "0x0000000000000000000000009f1942b8950c333bee9a39ca2985e8fd0244eac1"
      ],
      "transaction": {
        "from": "0xaa6816876280c5a685baf3d9c214a092c7f3f6ef",
        "to": "0x08f1785174f56600ba22f8d26067b19f4c3e4231",
        "gas": "0x9cb2",
        "value": "0x0",
        "input": "0x3400288b0000000000000000000000000000000000000000000000000000000000009d280000000000000000000000009f1942b8950c333bee9a39ca2985e8fd0244eac1",
        "nonce": "0x7e",
        "chainId": "0x66eee"
      },
      "additionalContracts": [],
      "isFixedGasLimit": false
    }
  ],
  "receipts": [
    {
      "status": "0x1",
      "cumulativeGasUsed": "0xe86c0",
      "logs": [
        {
          "address": "0x08f1785174f56600ba22f8d26067b19f4c3e4231",
          "topics": [
            "0x238399d427b947898edb290f5ff0f9109849b1c3ba196a42e35f00c50a54b98b"
          ],
          "data": "0x0000000000000000000000000000000000000000000000000000000000009d280000000000000000000000009f1942b8950c333bee9a39ca2985e8fd0244eac1",
          "blockHash": "0x69a8512cf40f7c0965fb824020229ff574bd2fc8007fe8b3f1e96728f61b6886",
          "blockNumber": "0x9fd23e8",
          "transactionHash": "0x2558a5c9eb7074b5a4434e2028d1d210dc11371b423a2159bdc9c8f5c36338bf",
          "transactionIndex": "0x5",
          "logIndex": "0x9",
          "removed": false
        }
      ],
      "logsBloom": "0x00000000000000000000000000000000000000000000000000000000000020000000000000000000000000000000000000000000000000000800000000000000000000000000000000000000000000000000000000000000000000000000000000000000000000000000000000000000000000000000000000000000000000000000000000000000000000000000000000000000000000080080000000000000000000000000000000000000000000000000000000000000000002000000000000000000000000000000000000000000000000000000000000040000000000000000000000000000000000000000000000000000000000000000000000000000",
      "type": "0x2",
      "transactionHash": "0x2558a5c9eb7074b5a4434e2028d1d210dc11371b423a2159bdc9c8f5c36338bf",
      "transactionIndex": "0x5",
      "blockHash": "0x69a8512cf40f7c0965fb824020229ff574bd2fc8007fe8b3f1e96728f61b6886",
      "blockNumber": "0x9fd23e8",
      "gasUsed": "0x772a",
      "effectiveGasPrice": "0x5f5e100",
      "from": "0xaa6816876280c5a685baf3d9c214a092c7f3f6ef",
      "to": "0x08f1785174f56600ba22f8d26067b19f4c3e4231",
      "contractAddress": null,
      "gasUsedForL1": "0x0",
      "l1BlockNumber": "0x83c884",
      "timeboosted": false
    }
  ],
  "libraries": [],
  "pending": [],
  "returns": {},
  "timestamp": 1750983500,
  "chain": 421614,
  "commit": "0048b09"
}