{
  "transactions": [
    {
      "hash": "0xdeb7a2474b250a961b8ae915ce3d58c1bd0a4c1a147c6858e4463c142b8ea0c6",
      "transactionType": "CALL",
      "contractName": null,
      "contractAddress": "0x08f1785174f56600ba22f8d26067b19f4c3e4231",
      "function": "setPeer(uint32,bytes32)",
      "arguments": [
        "40232",
        "0x000000000000000000000000aa65ed34f92f5e8e2c2253863dbce0425d6b44b2"
      ],
      "transaction": {
        "from": "0xaa6816876280c5a685baf3d9c214a092c7f3f6ef",
        "to": "0x08f1785174f56600ba22f8d26067b19f4c3e4231",
        "gas": "0xf3b4",
        "value": "0x0",
        "input": "0x3400288b0000000000000000000000000000000000000000000000000000000000009d28000000000000000000000000aa65ed34f92f5e8e2c2253863dbce0425d6b44b2",
        "nonce": "0x7a",
        "chainId": "0x66eee"
      },
      "additionalContracts": [],
      "isFixedGasLimit": false
    }
  ],
  "receipts": [
    {
      "status": "0x1",
      "cumulativeGasUsed": "0x4f72b",
      "logs": [
        {
          "address": "0x08f1785174f56600ba22f8d26067b19f4c3e4231",
          "topics": [
            "0x238399d427b947898edb290f5ff0f9109849b1c3ba196a42e35f00c50a54b98b"
          ],
          "data": "0x0000000000000000000000000000000000000000000000000000000000009d28000000000000000000000000aa65ed34f92f5e8e2c2253863dbce0425d6b44b2",
          "blockHash": "0x5efe4c38ae562141d939ad97946b1aca133e7a3a1d85d9971d4a6e489a5b649a",
          "blockNumber": "0x9fcc05a",
          "transactionHash": "0xdeb7a2474b250a961b8ae915ce3d58c1bd0a4c1a147c6858e4463c142b8ea0c6",
          "transactionIndex": "0x4",
          "logIndex": "0x7",
          "removed": false
        }
      ],
      "logsBloom": "0x00000000000000000000000000000000000000000000000000000000000020000000000000000000000000000000000000000000000000000800000000000000000000000000000000000000000000000000000000000000000000000000000000000000000000000000000000000000000000000000000000000000000000000000000000000000000000000000000000000000000000080080000000000000000000000000000000000000000000000000000000000000000002000000000000000000000000000000000000000000000000000000000000040000000000000000000000000000000000000000000000000000000000000000000000000000",
      "type": "0x2",
      "transactionHash": "0xdeb7a2474b250a961b8ae915ce3d58c1bd0a4c1a147c6858e4463c142b8ea0c6",
      "transactionIndex": "0x4",
      "blockHash": "0x5efe4c38ae562141d939ad97946b1aca133e7a3a1d85d9971d4a6e489a5b649a",
      "blockNumber": "0x9fcc05a",
      "gasUsed": "0xb9f6",
      "effectiveGasPrice": "0x5f5e100",
      "from": "0xaa6816876280c5a685baf3d9c214a092c7f3f6ef",
      "to": "0x08f1785174f56600ba22f8d26067b19f4c3e4231",
      "contractAddress": null,
      "gasUsedForL1": "0x0",
      "l1BlockNumber": "0x83c66e",
      "timeboosted": false
    }
  ],
  "libraries": [],
  "pending": [],
  "returns": {},
  "timestamp": 1750977085,
  "chain": 421614,
  "commit": "fd07104"
}