{
  "transactions": [
    {
      "hash": "0xc9ccbd3606939cbe8753805b6b8ecf32977c006340308693d89008922e6bd4cb",
      "transactionType": "CALL",
      "contractName": null,
      "contractAddress": "0x6633080966e94540c70dd1c233a90d1dcec79569",
      "function": "setPeer(uint32,bytes32)",
      "arguments": [
        "40232",
        "0x000000000000000000000000c6d4d9198a2c091f2f9fda4a957b7f7efce26194"
      ],
      "transaction": {
        "from": "0xaa6816876280c5a685baf3d9c214a092c7f3f6ef",
        "to": "0x6633080966e94540c70dd1c233a90d1dcec79569",
        "gas": "0xf490",
        "value": "0x0",
        "input": "0x3400288b0000000000000000000000000000000000000000000000000000000000009d28000000000000000000000000c6d4d9198a2c091f2f9fda4a957b7f7efce26194",
        "nonce": "0x73",
        "chainId": "0x66eee"
      },
      "additionalContracts": [],
      "isFixedGasLimit": false
    }
  ],
  "receipts": [
    {
      "status": "0x1",
      "cumulativeGasUsed": "0x2dc74c",
      "logs": [
        {
          "address": "0x6633080966e94540c70dd1c233a90d1dcec79569",
          "topics": [
            "0x238399d427b947898edb290f5ff0f9109849b1c3ba196a42e35f00c50a54b98b"
          ],
          "data": "0x0000000000000000000000000000000000000000000000000000000000009d28000000000000000000000000c6d4d9198a2c091f2f9fda4a957b7f7efce26194",
          "blockHash": "0x7116a0f449259656e3e03d78f0c7958e5c7059aea55f9fb7a5d78155f611ccdf",
          "blockNumber": "0x9faaafa",
          "transactionHash": "0xc9ccbd3606939cbe8753805b6b8ecf32977c006340308693d89008922e6bd4cb",
          "transactionIndex": "0x1a",
          "logIndex": "0x50",
          "removed": false
        }
      ],
      "logsBloom": "0x00000000000000000000000000000000000000000000000000000000000000000000000000000000000000000000000000000000000000000801000000000000000000000000000000000000000000000000000000000000000000000000000000000000000000000000000000000000000000000000000000000000000000000000000000000000000000000000000000000000000000000000800000000000000000000000000000000000000000000010000000000000000002000000000000000000000000000000000000000000000000000000000000040000000000000000000000000000000000000000000000000000000000000000000000000000",
      "type": "0x2",
      "transactionHash": "0xc9ccbd3606939cbe8753805b6b8ecf32977c006340308693d89008922e6bd4cb",
      "transactionIndex": "0x1a",
      "blockHash": "0x7116a0f449259656e3e03d78f0c7958e5c7059aea55f9fb7a5d78155f611ccdf",
      "blockNumber": "0x9faaafa",
      "gasUsed": "0xba82",
      "effectiveGasPrice": "0x5f5e100",
      "from": "0xaa6816876280c5a685baf3d9c214a092c7f3f6ef",
      "to": "0x6633080966e94540c70dd1c233a90d1dcec79569",
      "contractAddress": null,
      "gasUsedForL1": "0x76",
      "l1BlockNumber": "0x83bb48",
      "timeboosted": false
    }
  ],
  "libraries": [],
  "pending": [],
  "returns": {},
  "timestamp": 1750942536,
  "chain": 421614,
  "commit": "509301b"
}