{
  "transactions": [
    {
      "hash": "0xff6d0b6d8218b627da74069fd9aafe67b5e977a134a3a0fee489f1ffdbe335c4",
      "transactionType": "CALL",
      "contractName": null,
      "contractAddress": "0x1c475bb73d6804e3b223edfd1d2ea6a13ebe1754",
      "function": "setPeer(uint32,bytes32)",
      "arguments": [
        "40232",
        "0x000000000000000000000000c6d4d9198a2c091f2f9fda4a957b7f7efce26194"
      ],
      "transaction": {
        "from": "0xaa6816876280c5a685baf3d9c214a092c7f3f6ef",
        "to": "0x1c475bb73d6804e3b223edfd1d2ea6a13ebe1754",
        "gas": "0xf421",
        "value": "0x0",
        "input": "0x3400288b0000000000000000000000000000000000000000000000000000000000009d28000000000000000000000000c6d4d9198a2c091f2f9fda4a957b7f7efce26194",
        "nonce": "0x75",
        "chainId": "0x66eee"
      },
      "additionalContracts": [],
      "isFixedGasLimit": false
    }
  ],
  "receipts": [
    {
      "status": "0x1",
      "cumulativeGasUsed": "0x1714b9",
      "logs": [
        {
          "address": "0x1c475bb73d6804e3b223edfd1d2ea6a13ebe1754",
          "topics": [
            "0x238399d427b947898edb290f5ff0f9109849b1c3ba196a42e35f00c50a54b98b"
          ],
          "data": "0x0000000000000000000000000000000000000000000000000000000000009d28000000000000000000000000c6d4d9198a2c091f2f9fda4a957b7f7efce26194",
          "blockHash": "0x8664913210c20ea176f0e0c4a1fb412207c70eb801df455b8be06d4059b0b3e9",
          "blockNumber": "0x9fad885",
          "transactionHash": "0xff6d0b6d8218b627da74069fd9aafe67b5e977a134a3a0fee489f1ffdbe335c4",
          "transactionIndex": "0xd",
          "logIndex": "0x31",
          "removed": false
        }
      ],
      "logsBloom": "0x00000000000000000000000000000000000000000000000000000000000000000000000000000000000000000000000000000000000000000800000000000001000000000000000000000000000000000000000000000000000000000000000000000000000000000000000000000000000000000000000000000000000000000000000000000000000000000000000000000000000000000000000000000000000000000000000000000000000000001000000000000000000002000000000000000000000000000000000000000000000000000000000000040000000000000000000000000000000000080000000000000000000000000000000000000000",
      "type": "0x2",
      "transactionHash": "0xff6d0b6d8218b627da74069fd9aafe67b5e977a134a3a0fee489f1ffdbe335c4",
      "transactionIndex": "0xd",
      "blockHash": "0x8664913210c20ea176f0e0c4a1fb412207c70eb801df455b8be06d4059b0b3e9",
      "blockNumber": "0x9fad885",
      "gasUsed": "0xba42",
      "effectiveGasPrice": "0x5f5e100",
      "from": "0xaa6816876280c5a685baf3d9c214a092c7f3f6ef",
      "to": "0x1c475bb73d6804e3b223edfd1d2ea6a13ebe1754",
      "contractAddress": null,
      "gasUsedForL1": "0x20",
      "l1BlockNumber": "0x83bc3c",
      "timeboosted": false
    }
  ],
  "libraries": [],
  "pending": [],
  "returns": {},
  "timestamp": 1750945575,
  "chain": 421614,
  "commit": "509301b"
}