{
  "transactions": [
    {
      "hash": "0xf4af17a8cf955ce6344b785e16359357af98a86e16c6563d7903bcaad3578a4d",
      "transactionType": "CALL",
      "contractName": null,
      "contractAddress": "0x9f1942b8950c333bee9a39ca2985e8fd0244eac1",
      "function": "setPeer(uint32,bytes32)",
      "arguments": [
        "40231",
        "0x00000000000000000000000008f1785174f56600ba22f8d26067b19f4c3e4231"
      ],
      "transaction": {
        "from": "0xaa6816876280c5a685baf3d9c214a092c7f3f6ef",
        "to": "0x9f1942b8950c333bee9a39ca2985e8fd0244eac1",
        "gas": "0x10152",
        "value": "0x0",
        "input": "0x3400288b0000000000000000000000000000000000000000000000000000000000009d2700000000000000000000000008f1785174f56600ba22f8d26067b19f4c3e4231",
        "nonce": "0x47",
        "chainId": "0xaa37dc"
      },
      "additionalContracts": [],
      "isFixedGasLimit": false
    },
    {
      "hash": "0x510a7547d837f2c82d77eb05b7d450d9b9b759a40549b374e99c5474527188e6",
      "transactionType": "CALL",
      "contractName": null,
      "contractAddress": "0x9f1942b8950c333bee9a39ca2985e8fd0244eac1",
      "function": "addAuthorizedLocal(uint32,bytes32)",
      "arguments": [
        "40231",
        "0x00000000000000000000000008f1785174f56600ba22f8d26067b19f4c3e4231"
      ],
      "transaction": {
        "from": "0xaa6816876280c5a685baf3d9c214a092c7f3f6ef",
        "to": "0x9f1942b8950c333bee9a39ca2985e8fd0244eac1",
        "gas": "0x116b6",
        "value": "0x0",
        "input": "0xd808d4050000000000000000000000000000000000000000000000000000000000009d2700000000000000000000000008f1785174f56600ba22f8d26067b19f4c3e4231",
        "nonce": "0x48",
        "chainId": "0xaa37dc"
      },
      "additionalContracts": [],
      "isFixedGasLimit": false
    }
  ],
  "receipts": [
    {
      "status": "0x1",
      "cumulativeGasUsed": "0xe99f61",
      "logs": [
        {
          "address": "0x9f1942b8950c333bee9a39ca2985e8fd0244eac1",
          "topics": [
            "0x238399d427b947898edb290f5ff0f9109849b1c3ba196a42e35f00c50a54b98b"
          ],
          "data": "0x0000000000000000000000000000000000000000000000000000000000009d2700000000000000000000000008f1785174f56600ba22f8d26067b19f4c3e4231",
          "blockHash": "0xa84e0eb30a9bf8fcb292f87bf1f4ab401d698708355d6e6294f86545b86e72df",
          "blockNumber": "0x1c383c4",
          "transactionHash": "0xf4af17a8cf955ce6344b785e16359357af98a86e16c6563d7903bcaad3578a4d",
          "transactionIndex": "0x5",
          "logIndex": "0x167",
          "removed": false
        }
      ],
      "logsBloom": "0x00000000000000000000000000000000000000000000000000000000000000000000000000000000000000000000000000000000000000000800000000000000000000000000000000000000000000000000000000000000000000000000000000000000000000000000000000000000000000000000000000000000000000000000000000000000000000000000000000000000000000000000000000000000000000000000000000000000000000000010000000000000002002000000000000000000000000000004000000000000000000000000000000040000000000000000000000000000000000000000000000000000000000000000000000000000",
      "type": "0x2",
      "transactionHash": "0xf4af17a8cf955ce6344b785e16359357af98a86e16c6563d7903bcaad3578a4d",
      "transactionIndex": "0x5",
      "blockHash": "0xa84e0eb30a9bf8fcb292f87bf1f4ab401d698708355d6e6294f86545b86e72df",
      "blockNumber": "0x1c383c4",
      "gasUsed": "0xba4d",
      "effectiveGasPrice": "0xf433a",
      "from": "0xaa6816876280c5a685baf3d9c214a092c7f3f6ef",
      "to": "0x9f1942b8950c333bee9a39ca2985e8fd0244eac1",
      "contractAddress": null,
      "l1BaseFeeScalar": "0x1db0",
      "l1BlobBaseFee": "0x1",
      "l1BlobBaseFeeScalar": "0xd2730",
      "l1Fee": "0x1aa",
      "l1GasPrice": "0x1c",
      "l1GasUsed": "0x640"
    },
    {
      "status": "0x1",
      "cumulativeGasUsed": "0xea5df4",
      "logs": [
        {
          "address": "0x9f1942b8950c333bee9a39ca2985e8fd0244eac1",
          "topics": [
            "0x509d7440b5956ceeea2d398b5c802a556c66510a5f4b24b77acef6cf3b9325da",
            "0x0000000000000000000000000000000000000000000000000000000000009d27",
            "0x00000000000000000000000008f1785174f56600ba22f8d26067b19f4c3e4231"
          ],
          "data": "0x",
          "blockHash": "0xa84e0eb30a9bf8fcb292f87bf1f4ab401d698708355d6e6294f86545b86e72df",
          "blockNumber": "0x1c383c4",
          "transactionHash": "0x510a7547d837f2c82d77eb05b7d450d9b9b759a40549b374e99c5474527188e6",
          "transactionIndex": "0x6",
          "logIndex": "0x168",
          "removed": false
        }
      ],
      "logsBloom": "0x00000000000000000000000000000000000000000000000000000000000000000000000000004000000000000000000000000000000000020000000000000000000000000000000000004000000000000000000000000000000000000000400000000000000000000004000000000000000000000000000000000000000000000000000001000000000000000000000000000000200000000000000000000000000000000000000000100000000000000010000000000000002000000000000000000000000000000004000000000000400000000000000000000000000000000000000000000000000000000000000000000000000000000000000000000000",
      "type": "0x2",
      "transactionHash": "0x510a7547d837f2c82d77eb05b7d450d9b9b759a40549b374e99c5474527188e6",
      "transactionIndex": "0x6",
      "blockHash": "0xa84e0eb30a9bf8fcb292f87bf1f4ab401d698708355d6e6294f86545b86e72df",
      "blockNumber": "0x1c383c4",
      "gasUsed": "0xbe93",
      "effectiveGasPrice": "0xf433a",
      "from": "0xaa6816876280c5a685baf3d9c214a092c7f3f6ef",
      "to": "0x9f1942b8950c333bee9a39ca2985e8fd0244eac1",
      "contractAddress": null,
      "l1BaseFeeScalar": "0x1db0",
      "l1BlobBaseFee": "0x1",
      "l1BlobBaseFeeScalar": "0xd2730",
      "l1Fee": "0x1aa",
      "l1GasPrice": "0x1c",
      "l1GasUsed": "0x640"
    }
  ],
  "libraries": [],
  "pending": [],
  "returns": {},
  "timestamp": 1750983477,
  "chain": 11155420,
  "commit": "0048b09"
}