{
  "transactions": [
    {
      "hash": "0xcb9360db889134909eeba070ac7e3f6b580cc08289c9def7b52e5f910900de07",
      "transactionType": "CALL",
      "contractName": null,
      "contractAddress": "0xc6d4d9198a2c091f2f9fda4a957b7f7efce26194",
      "function": "setPeer(uint32,bytes32)",
      "arguments": [
        "40231",
        "0x0000000000000000000000006633080966e94540c70dd1c233a90d1dcec79569"
      ],
      "transaction": {
        "from": "0xaa6816876280c5a685baf3d9c214a092c7f3f6ef",
        "to": "0xc6d4d9198a2c091f2f9fda4a957b7f7efce26194",
        "gas": "0x9e98",
        "value": "0x0",
        "input": "0x3400288b0000000000000000000000000000000000000000000000000000000000009d270000000000000000000000006633080966e94540c70dd1c233a90d1dcec79569",
        "nonce": "0x3f",
        "chainId": "0xaa37dc"
      },
      "additionalContracts": [],
      "isFixedGasLimit": false
    },
    {
      "hash": "0xc191e3fe7f9cf10be35f2a58c8034f032330bf26d804d02febfa80113070a20d",
      "transactionType": "CALL",
      "contractName": null,
      "contractAddress": "0xc6d4d9198a2c091f2f9fda4a957b7f7efce26194",
      "function": "addAuthorizedLocal(uint32,bytes32)",
      "arguments": [
        "40231",
        "0x0000000000000000000000006633080966e94540c70dd1c233a90d1dcec79569"
      ],
      "transaction": {
        "from": "0xaa6816876280c5a685baf3d9c214a092c7f3f6ef",
        "to": "0xc6d4d9198a2c091f2f9fda4a957b7f7efce26194",
        "gas": "0x9b54",
        "value": "0x0",
        "input": "0xd808d4050000000000000000000000000000000000000000000000000000000000009d270000000000000000000000006633080966e94540c70dd1c233a90d1dcec79569",
        "nonce": "0x40",
        "chainId": "0xaa37dc"
      },
      "additionalContracts": [],
      "isFixedGasLimit": false
    }
  ],
  "receipts": [
    {
      "status": "0x1",
      "cumulativeGasUsed": "0x24ebe",
      "logs": [
        {
          "address": "0xc6d4d9198a2c091f2f9fda4a957b7f7efce26194",
          "topics": [
            "0x238399d427b947898edb290f5ff0f9109849b1c3ba196a42e35f00c50a54b98b"
          ],
          "data": "0x0000000000000000000000000000000000000000000000000000000000009d270000000000000000000000006633080966e94540c70dd1c233a90d1dcec79569",
          "blockHash": "0x1d1899b156a6acfebe9c50e59a6d7c2e9b955110fdb990946943ec0d54615b73",
          "blockNumber": "0x1c333e2",
          "transactionHash": "0xcb9360db889134909eeba070ac7e3f6b580cc08289c9def7b52e5f910900de07",
          "transactionIndex": "0x2",
          "logIndex": "0x1",
          "removed": false
        }
      ],
      "logsBloom": "0x00000000000000000020000000000000000000000000000000000000000000000000000000000000000000000000000000000000000000000800000000000000000000000000000000000000000000000000000000000000000000000000000000000000000000000000000000000000000000000000000000000000000000000000000000000000000000080000000000000000000000000000000000000000000000000000000000000000000000004000000000000000000002000000000000000000000000000000000000000000000000000000000000040000000000000000000000000000000000000000000000000000000000000000000000000000",
      "type": "0x2",
      "transactionHash": "0xcb9360db889134909eeba070ac7e3f6b580cc08289c9def7b52e5f910900de07",
      "transactionIndex": "0x2",
      "blockHash": "0x1d1899b156a6acfebe9c50e59a6d7c2e9b955110fdb990946943ec0d54615b73",
      "blockNumber": "0x1c333e2",
      "gasUsed": "0x6c71",
      "effectiveGasPrice": "0xf6a4c",
      "from": "0xaa6816876280c5a685baf3d9c214a092c7f3f6ef",
      "to": "0xc6d4d9198a2c091f2f9fda4a957b7f7efce26194",
      "contractAddress": null,
      "l1BaseFeeScalar": "0x1db0",
      "l1BlobBaseFee": "0x1",
      "l1BlobBaseFeeScalar": "0xd2730",
      "l1Fee": "0x14bd98d6a",
      "l1GasPrice": "0x1b4a4fd0",
      "l1GasUsed": "0x640"
    },
    {
      "status": "0x1",
      "cumulativeGasUsed": "0x2bf33",
      "logs": [
        {
          "address": "0xc6d4d9198a2c091f2f9fda4a957b7f7efce26194",
          "topics": [
            "0x509d7440b5956ceeea2d398b5c802a556c66510a5f4b24b77acef6cf3b9325da",
            "0x0000000000000000000000000000000000000000000000000000000000009d27",
            "0x0000000000000000000000006633080966e94540c70dd1c233a90d1dcec79569"
          ],
          "data": "0x",
          "blockHash": "0x1d1899b156a6acfebe9c50e59a6d7c2e9b955110fdb990946943ec0d54615b73",
          "blockNumber": "0x1c333e2",
          "transactionHash": "0xc191e3fe7f9cf10be35f2a58c8034f032330bf26d804d02febfa80113070a20d",
          "transactionIndex": "0x3",
          "logIndex": "0x2",
          "removed": false
        }
      ],
      "logsBloom": "0x10000000000000000020000000000000000000000000000000000000000000000000000000004000000000000000000000000000000000020000000000000000000000000000000000000000000000000000000004000000000000000000000000000000000000000004000000000000010000000000000000000000000000000000000000000000000000080000000000000000200000000000000000000000000000000000000000100000000000004000000000000000000000000000000000000000000000000000000000000000400000000000000000000000000000000000000000000000000000000000000000000000000000000000000000000000",
      "type": "0x2",
      "transactionHash": "0xc191e3fe7f9cf10be35f2a58c8034f032330bf26d804d02febfa80113070a20d",
      "transactionIndex": "0x3",
      "blockHash": "0x1d1899b156a6acfebe9c50e59a6d7c2e9b955110fdb990946943ec0d54615b73",
      "blockNumber": "0x1c333e2",
      "gasUsed": "0x7075",
      "effectiveGasPrice": "0xf6a4c",
      "from": "0xaa6816876280c5a685baf3d9c214a092c7f3f6ef",
      "to": "0xc6d4d9198a2c091f2f9fda4a957b7f7efce26194",
      "contractAddress": null,
      "l1BaseFeeScalar": "0x1db0",
      "l1BlobBaseFee": "0x1",
      "l1BlobBaseFeeScalar": "0xd2730",
      "l1Fee": "0x14bd98d6a",
      "l1GasPrice": "0x1b4a4fd0",
      "l1GasUsed": "0x640"
    }
  ],
  "libraries": [],
  "pending": [],
  "returns": {},
  "timestamp": 1750942576,
  "chain": 11155420,
  "commit": "509301b"
}