{
  "transactions": [
    {
      "hash": "0x74ae40a7ca530e733c470fc6987f4b68c400b4fe6455b2a9ad97c25fce1eb47b",
      "transactionType": "CALL",
      "contractName": null,
      "contractAddress": "0x68b9da88e948899e8fd766ec18c2424afea55d27",
      "function": "setPeer(uint32,bytes32)",
      "arguments": [
        "40231",
        "0x0000000000000000000000004fe04e1fc08b7aa1813d0284ea3469c69d46ff14"
      ],
      "transaction": {
        "from": "0xaa6816876280c5a685baf3d9c214a092c7f3f6ef",
        "to": "0x68b9da88e948899e8fd766ec18c2424afea55d27",
        "gas": "0x10099",
        "value": "0x0",
        "input": "0x3400288b0000000000000000000000000000000000000000000000000000000000009d270000000000000000000000004fe04e1fc08b7aa1813d0284ea3469c69d46ff14",
        "nonce": "0x8b",
        "chainId": "0xaa37dc"
      },
      "additionalContracts": [],
      "isFixedGasLimit": false
    }
  ],
  "receipts": [
    {
      "status": "0x1",
      "cumulativeGasUsed": "0x1ce935",
      "logs": [
        {
          "address": "0x68b9da88e948899e8fd766ec18c2424afea55d27",
          "topics": [
            "0x238399d427b947898edb290f5ff0f9109849b1c3ba196a42e35f00c50a54b98b"
          ],
          "data": "0x0000000000000000000000000000000000000000000000000000000000009d270000000000000000000000004fe04e1fc08b7aa1813d0284ea3469c69d46ff14",
          "blockHash": "0x2064d1210638ae1b6dbe862c8cb928e38604b504ab744857730e42591e3f893d",
          "blockNumber": "0x1ca45fe",
          "transactionHash": "0x74ae40a7ca530e733c470fc6987f4b68c400b4fe6455b2a9ad97c25fce1eb47b",
          "transactionIndex": "0x2",
          "logIndex": "0x1",
          "removed": false
        }
      ],
      "logsBloom": "0x00000000000000000000000000000000000000000000000000000000000000000000000000000000000000000000000000000000000000000800000000000000000000000000000000000000000000000000000000000000000000000000000000000000000000000000000000000000000000000000000000000000000000000000080000000000000000000000000000000000000000000000000000000000000000000000000000000000000000000000000000000000000002000000000000000000000000000000000000000000000000000000080000040000000000000000000000000000000000000000000000000000000000080000000000000000",
      "type": "0x2",
      "transactionHash": "0x74ae40a7ca530e733c470fc6987f4b68c400b4fe6455b2a9ad97c25fce1eb47b",
      "transactionIndex": "0x2",
      "blockHash": "0x2064d1210638ae1b6dbe862c8cb928e38604b504ab744857730e42591e3f893d",
      "blockNumber": "0x1ca45fe",
      "gasUsed": "0xb9c6",
      "effectiveGasPrice": "0xf433a",
      "from": "0xaa6816876280c5a685baf3d9c214a092c7f3f6ef",
      "to": "0x68b9da88e948899e8fd766ec18c2424afea55d27",
      "contractAddress": null,
      "l1BaseFeeScalar": "0x1db0",
      "l1BlobBaseFee": "0x1",
      "l1BlobBaseFeeScalar": "0xd2730",
      "l1Fee": "0x5fc7fa6",
      "l1GasPrice": "0x7e071a",
      "l1GasUsed": "0x640"
    }
  ],
  "libraries": [],
  "pending": [],
  "returns": {},
  "timestamp": 1751869354,
  "chain": 11155420,
  "commit": "269d95b"
}