{
  "transactions": [
    {
      "hash": "0x083dca9033e4faf99c596cc0c9a87f7a1ff7cd667fe4379d81216be10106660f",
      "transactionType": "CALL",
      "contractName": null,
      "contractAddress": "0xc6d4d9198a2c091f2f9fda4a957b7f7efce26194",
      "function": "setPeer(uint32,bytes32)",
      "arguments": [
        "40231",
        "0x0000000000000000000000006633080966e94540c70dd1c233a90d1dcec79569"
      ],
      "transaction": {
        "from": "0xaa6816876280c5a685baf3d9c214a092c7f3f6ef",
        "to": "0xc6d4d9198a2c091f2f9fda4a957b7f7efce26194",
        "gas": "0xae97",
        "value": "0x0",
        "input": "0x3400288b0000000000000000000000000000000000000000000000000000000000009d270000000000000000000000006633080966e94540c70dd1c233a90d1dcec79569",
        "nonce": "0x3d",
        "chainId": "0xaa37dc"
      },
      "additionalContracts": [],
      "isFixedGasLimit": false
    },
    {
      "hash": "0x555786a6031a37c24b7b8b3bc7a19b5417c1b151cc2dcc4b056cc8b0b3946739",
      "transactionType": "CALL",
      "contractName": null,
      "contractAddress": "0xc6d4d9198a2c091f2f9fda4a957b7f7efce26194",
      "function": "addAuthorizedLocal(uint32,bytes32)",
      "arguments": [
        "40231",
        "0x0000000000000000000000006633080966e94540c70dd1c233a90d1dcec79569"
      ],
      "transaction": {
        "from": "0xaa6816876280c5a685baf3d9c214a092c7f3f6ef",
        "to": "0xc6d4d9198a2c091f2f9fda4a957b7f7efce26194",
        "gas": "0x9b54",
        "value": "0x0",
        "input": "0xd808d4050000000000000000000000000000000000000000000000000000000000009d270000000000000000000000006633080966e94540c70dd1c233a90d1dcec79569",
        "nonce": "0x3e",
        "chainId": "0xaa37dc"
      },
      "additionalContracts": [],
      "isFixedGasLimit": false
    }
  ],
  "receipts": [
    {
      "status": "0x1",
      "cumulativeGasUsed": "0x25d2aa",
      "logs": [
        {
          "address": "0xc6d4d9198a2c091f2f9fda4a957b7f7efce26194",
          "topics": [
            "0x238399d427b947898edb290f5ff0f9109849b1c3ba196a42e35f00c50a54b98b"
          ],
          "data": "0x0000000000000000000000000000000000000000000000000000000000009d270000000000000000000000006633080966e94540c70dd1c233a90d1dcec79569",
          "blockHash": "0xbc3d7e732bedcf86407cbcb0766c2663088598e86f77dd813ed4342c0cc61686",
          "blockNumber": "0x1c3281d",
          "transactionHash": "0x083dca9033e4faf99c596cc0c9a87f7a1ff7cd667fe4379d81216be10106660f",
          "transactionIndex": "0x7",
          "logIndex": "0x26",
          "removed": false
        }
      ],
      "logsBloom": "0x00000000000000000020000000000000000000000000000000000000000000000000000000000000000000000000000000000000000000000800000000000000000000000000000000000000000000000000000000000000000000000000000000000000000000000000000000000000000000000000000000000000000000000000000000000000000000080000000000000000000000000000000000000000000000000000000000000000000000004000000000000000000002000000000000000000000000000000000000000000000000000000000000040000000000000000000000000000000000000000000000000000000000000000000000000000",
      "type": "0x2",
      "transactionHash": "0x083dca9033e4faf99c596cc0c9a87f7a1ff7cd667fe4379d81216be10106660f",
      "transactionIndex": "0x7",
      "blockHash": "0xbc3d7e732bedcf86407cbcb0766c2663088598e86f77dd813ed4342c0cc61686",
      "blockNumber": "0x1c3281d",
      "gasUsed": "0x7761",
      "effectiveGasPrice": "0xdee1b",
      "from": "0xaa6816876280c5a685baf3d9c214a092c7f3f6ef",
      "to": "0xc6d4d9198a2c091f2f9fda4a957b7f7efce26194",
      "contractAddress": null,
      "l1BaseFeeScalar": "0x1db0",
      "l1BlobBaseFee": "0x1",
      "l1BlobBaseFeeScalar": "0xd2730",
      "l1Fee": "0x9116f9e7e",
      "l1GasPrice": "0xbee85645",
      "l1GasUsed": "0x640"
    },
    {
      "status": "0x1",
      "cumulativeGasUsed": "0x26431f",
      "logs": [
        {
          "address": "0xc6d4d9198a2c091f2f9fda4a957b7f7efce26194",
          "topics": [
            "0x509d7440b5956ceeea2d398b5c802a556c66510a5f4b24b77acef6cf3b9325da",
            "0x0000000000000000000000000000000000000000000000000000000000009d27",
            "0x0000000000000000000000006633080966e94540c70dd1c233a90d1dcec79569"
          ],
          "data": "0x",
          "blockHash": "0xbc3d7e732bedcf86407cbcb0766c2663088598e86f77dd813ed4342c0cc61686",
          "blockNumber": "0x1c3281d",
          "transactionHash": "0x555786a6031a37c24b7b8b3bc7a19b5417c1b151cc2dcc4b056cc8b0b3946739",
          "transactionIndex": "0x8",
          "logIndex": "0x27",
          "removed": false
        }
      ],
      "logsBloom": "0x10000000000000000020000000000000000000000000000000000000000000000000000000004000000000000000000000000000000000020000000000000000000000000000000000000000000000000000000004000000000000000000000000000000000000000004000000000000010000000000000000000000000000000000000000000000000000080000000000000000200000000000000000000000000000000000000000100000000000004000000000000000000000000000000000000000000000000000000000000000400000000000000000000000000000000000000000000000000000000000000000000000000000000000000000000000",
      "type": "0x2",
      "transactionHash": "0x555786a6031a37c24b7b8b3bc7a19b5417c1b151cc2dcc4b056cc8b0b3946739",
      "transactionIndex": "0x8",
      "blockHash": "0xbc3d7e732bedcf86407cbcb0766c2663088598e86f77dd813ed4342c0cc61686",
      "blockNumber": "0x1c3281d",
      "gasUsed": "0x7075",
      "effectiveGasPrice": "0xdee1b",
      "from": "0xaa6816876280c5a685baf3d9c214a092c7f3f6ef",
      "to": "0xc6d4d9198a2c091f2f9fda4a957b7f7efce26194",
      "contractAddress": null,
      "l1BaseFeeScalar": "0x1db0",
      "l1BlobBaseFee": "0x1",
      "l1BlobBaseFeeScalar": "0xd2730",
      "l1Fee": "0x9116f9e7e",
      "l1GasPrice": "0xbee85645",
      "l1GasUsed": "0x640"
    }
  ],
  "libraries": [],
  "pending": [],
  "returns": {},
  "timestamp": 1750936551,
  "chain": 11155420,
  "commit": "be5859d"
}