{
  "transactions": [
    {
      "hash": "0xc35bed2ac8713a24831a65e96842a7491f3d739eefcb5060b0acd1fa9f82b1f9",
      "transactionType": "CALL",
      "contractName": null,
      "contractAddress": "0xc6d4d9198a2c091f2f9fda4a957b7f7efce26194",
      "function": "setPeer(uint32,bytes32)",
      "arguments": [
        "40231",
        "0x0000000000000000000000006633080966e94540c70dd1c233a90d1dcec79569"
      ],
      "transaction": {
        "from": "0xaa6816876280c5a685baf3d9c214a092c7f3f6ef",
        "to": "0xc6d4d9198a2c091f2f9fda4a957b7f7efce26194",
        "gas": "0xae97",
        "value": "0x0",
        "input": "0x3400288b0000000000000000000000000000000000000000000000000000000000009d270000000000000000000000006633080966e94540c70dd1c233a90d1dcec79569",
        "nonce": "0x3a",
        "chainId": "0xaa37dc"
      },
      "additionalContracts": [],
      "isFixedGasLimit": false
    },
    {
      "hash": "0xd4250202080c401856ffb15b53eeb6d67eb6730eccfec4371b1859b965d1c0d3",
      "transactionType": "CALL",
      "contractName": null,
      "contractAddress": "0xc6d4d9198a2c091f2f9fda4a957b7f7efce26194",
      "function": "addAuthorizedLocal(uint32,bytes32)",
      "arguments": [
        "40231",
        "0x0000000000000000000000006633080966e94540c70dd1c233a90d1dcec79569"
      ],
      "transaction": {
        "from": "0xaa6816876280c5a685baf3d9c214a092c7f3f6ef",
        "to": "0xc6d4d9198a2c091f2f9fda4a957b7f7efce26194",
        "gas": "0x11627",
        "value": "0x0",
        "input": "0xd808d4050000000000000000000000000000000000000000000000000000000000009d270000000000000000000000006633080966e94540c70dd1c233a90d1dcec79569",
        "nonce": "0x3b",
        "chainId": "0xaa37dc"
      },
      "additionalContracts": [],
      "isFixedGasLimit": false
    }
  ],
  "receipts": [
    {
      "status": "0x1",
      "cumulativeGasUsed": "0x1792e3",
      "logs": [
        {
          "address": "0xc6d4d9198a2c091f2f9fda4a957b7f7efce26194",
          "topics": [
            "0x238399d427b947898edb290f5ff0f9109849b1c3ba196a42e35f00c50a54b98b"
          ],
          "data": "0x0000000000000000000000000000000000000000000000000000000000009d270000000000000000000000006633080966e94540c70dd1c233a90d1dcec79569",
          "blockHash": "0x9e4dcc47a12b04cd495156fc22b78b494dfa7455e933bfcd05f5ff574ac93c7a",
          "blockNumber": "0x1c3264f",
          "transactionHash": "0xc35bed2ac8713a24831a65e96842a7491f3d739eefcb5060b0acd1fa9f82b1f9",
          "transactionIndex": "0x5",
          "logIndex": "0xf",
          "removed": false
        }
      ],
      "logsBloom": "0x00000000000000000020000000000000000000000000000000000000000000000000000000000000000000000000000000000000000000000800000000000000000000000000000000000000000000000000000000000000000000000000000000000000000000000000000000000000000000000000000000000000000000000000000000000000000000080000000000000000000000000000000000000000000000000000000000000000000000004000000000000000000002000000000000000000000000000000000000000000000000000000000000040000000000000000000000000000000000000000000000000000000000000000000000000000",
      "type": "0x2",
      "transactionHash": "0xc35bed2ac8713a24831a65e96842a7491f3d739eefcb5060b0acd1fa9f82b1f9",
      "transactionIndex": "0x5",
      "blockHash": "0x9e4dcc47a12b04cd495156fc22b78b494dfa7455e933bfcd05f5ff574ac93c7a",
      "blockNumber": "0x1c3264f",
      "gasUsed": "0x7761",
      "effectiveGasPrice": "0xf433a",
      "from": "0xaa6816876280c5a685baf3d9c214a092c7f3f6ef",
      "to": "0xc6d4d9198a2c091f2f9fda4a957b7f7efce26194",
      "contractAddress": null,
      "l1BaseFeeScalar": "0x1db0",
      "l1BlobBaseFee": "0x1",
      "l1BlobBaseFeeScalar": "0xd2730",
      "l1Fee": "0x7f13e03d5",
      "l1GasPrice": "0xa735198d",
      "l1GasUsed": "0x640"
    },
    {
      "status": "0x1",
      "cumulativeGasUsed": "0x185114",
      "logs": [
        {
          "address": "0xc6d4d9198a2c091f2f9fda4a957b7f7efce26194",
          "topics": [
            "0x509d7440b5956ceeea2d398b5c802a556c66510a5f4b24b77acef6cf3b9325da",
            "0x0000000000000000000000000000000000000000000000000000000000009d27",
            "0x0000000000000000000000006633080966e94540c70dd1c233a90d1dcec79569"
          ],
          "data": "0x",
          "blockHash": "0x9e4dcc47a12b04cd495156fc22b78b494dfa7455e933bfcd05f5ff574ac93c7a",
          "blockNumber": "0x1c3264f",
          "transactionHash": "0xd4250202080c401856ffb15b53eeb6d67eb6730eccfec4371b1859b965d1c0d3",
          "transactionIndex": "0x6",
          "logIndex": "0x10",
          "removed": false
        }
      ],
      "logsBloom": "0x10000000000000000020000000000000000000000000000000000000000000000000000000004000000000000000000000000000000000020000000000000000000000000000000000000000000000000000000004000000000000000000000000000000000000000004000000000000010000000000000000000000000000000000000000000000000000080000000000000000200000000000000000000000000000000000000000100000000000004000000000000000000000000000000000000000000000000000000000000000400000000000000000000000000000000000000000000000000000000000000000000000000000000000000000000000",
      "type": "0x2",
      "transactionHash": "0xd4250202080c401856ffb15b53eeb6d67eb6730eccfec4371b1859b965d1c0d3",
      "transactionIndex": "0x6",
      "blockHash": "0x9e4dcc47a12b04cd495156fc22b78b494dfa7455e933bfcd05f5ff574ac93c7a",
      "blockNumber": "0x1c3264f",
      "gasUsed": "0xbe31",
      "effectiveGasPrice": "0xf433a",
      "from": "0xaa6816876280c5a685baf3d9c214a092c7f3f6ef",
      "to": "0xc6d4d9198a2c091f2f9fda4a957b7f7efce26194",
      "contractAddress": null,
      "l1BaseFeeScalar": "0x1db0",
      "l1BlobBaseFee": "0x1",
      "l1BlobBaseFeeScalar": "0xd2730",
      "l1Fee": "0x7f13e03d5",
      "l1GasPrice": "0xa735198d",
      "l1GasUsed": "0x640"
    }
  ],
  "libraries": [],
  "pending": [],
  "returns": {},
  "timestamp": 1750935626,
  "chain": 11155420,
  "commit": "be5859d"
}