{
  "transactions": [
    {
      "hash": "0x4b48635dd8d55bf42b4251e86c8c82b921334862e54f40b128b43a0642efd159",
      "transactionType": "CALL",
      "contractName": null,
      "contractAddress": "0xc6d4d9198a2c091f2f9fda4a957b7f7efce26194",
      "function": "setPeer(uint32,bytes32)",
      "arguments": [
        "40231",
        "0x000000000000000000000000bc76120b1c3770154d4263e76f89485580d862a3"
      ],
      "transaction": {
        "from": "0xaa6816876280c5a685baf3d9c214a092c7f3f6ef",
        "to": "0xc6d4d9198a2c091f2f9fda4a957b7f7efce26194",
        "gas": "0x10126",
        "value": "0x0",
        "input": "0x3400288b0000000000000000000000000000000000000000000000000000000000009d27000000000000000000000000bc76120b1c3770154d4263e76f89485580d862a3",
        "nonce": "0x38",
        "chainId": "0xaa37dc"
      },
      "additionalContracts": [],
      "isFixedGasLimit": false
    },
    {
      "hash": "0x9c538ba6c1752535563214b170916fa6b31c4e3e7e917a89214663fb819a7e51",
      "transactionType": "CALL",
      "contractName": null,
      "contractAddress": "0xc6d4d9198a2c091f2f9fda4a957b7f7efce26194",
      "function": "addAuthorizedLocal(uint32,bytes32)",
      "arguments": [
        "40231",
        "0x000000000000000000000000bc76120b1c3770154d4263e76f89485580d862a3"
      ],
      "transaction": {
        "from": "0xaa6816876280c5a685baf3d9c214a092c7f3f6ef",
        "to": "0xc6d4d9198a2c091f2f9fda4a957b7f7efce26194",
        "gas": "0x11627",
        "value": "0x0",
        "input": "0xd808d4050000000000000000000000000000000000000000000000000000000000009d27000000000000000000000000bc76120b1c3770154d4263e76f89485580d862a3",
        "nonce": "0x39",
        "chainId": "0xaa37dc"
      },
      "additionalContracts": [],
      "isFixedGasLimit": false
    }
  ],
  "receipts": [
    {
      "status": "0x1",
      "cumulativeGasUsed": "0x2127d",
      "logs": [
        {
          "address": "0xc6d4d9198a2c091f2f9fda4a957b7f7efce26194",
          "topics": [
            "0x238399d427b947898edb290f5ff0f9109849b1c3ba196a42e35f00c50a54b98b"
          ],
          "data": "0x0000000000000000000000000000000000000000000000000000000000009d27000000000000000000000000bc76120b1c3770154d4263e76f89485580d862a3",
          "blockHash": "0xe36e8b5ea9d3ca21a8e3eaf912847f7ca63160da75a59c2c82b1dcad98c0058a",
          "blockNumber": "0x1c3224b",
          "transactionHash": "0x4b48635dd8d55bf42b4251e86c8c82b921334862e54f40b128b43a0642efd159",
          "transactionIndex": "0x3",
          "logIndex": "0x0",
          "removed": false
        }
      ],
      "logsBloom": "0x00000000000000000020000000000000000000000000000000000000000000000000000000000000000000000000000000000000000000000800000000000000000000000000000000000000000000000000000000000000000000000000000000000000000000000000000000000000000000000000000000000000000000000000000000000000000000080000000000000000000000000000000000000000000000000000000000000000000000004000000000000000000002000000000000000000000000000000000000000000000000000000000000040000000000000000000000000000000000000000000000000000000000000000000000000000",
      "type": "0x2",
      "transactionHash": "0x4b48635dd8d55bf42b4251e86c8c82b921334862e54f40b128b43a0642efd159",
      "transactionIndex": "0x3",
      "blockHash": "0xe36e8b5ea9d3ca21a8e3eaf912847f7ca63160da75a59c2c82b1dcad98c0058a",
      "blockNumber": "0x1c3224b",
      "gasUsed": "0xba2d",
      "effectiveGasPrice": "0xf433a",
      "from": "0xaa6816876280c5a685baf3d9c214a092c7f3f6ef",
      "to": "0xc6d4d9198a2c091f2f9fda4a957b7f7efce26194",
      "contractAddress": null,
      "l1BaseFeeScalar": "0x1db0",
      "l1BlobBaseFee": "0x1",
      "l1BlobBaseFeeScalar": "0xd2730",
      "l1Fee": "0xe6102bd06",
      "l1GasPrice": "0x12eb6f641",
      "l1GasUsed": "0x640"
    },
    {
      "status": "0x1",
      "cumulativeGasUsed": "0x2d0ae",
      "logs": [
        {
          "address": "0xc6d4d9198a2c091f2f9fda4a957b7f7efce26194",
          "topics": [
            "0x509d7440b5956ceeea2d398b5c802a556c66510a5f4b24b77acef6cf3b9325da",
            "0x0000000000000000000000000000000000000000000000000000000000009d27",
            "0x000000000000000000000000bc76120b1c3770154d4263e76f89485580d862a3"
          ],
          "data": "0x",
          "blockHash": "0xe36e8b5ea9d3ca21a8e3eaf912847f7ca63160da75a59c2c82b1dcad98c0058a",
          "blockNumber": "0x1c3224b",
          "transactionHash": "0x9c538ba6c1752535563214b170916fa6b31c4e3e7e917a89214663fb819a7e51",
          "transactionIndex": "0x4",
          "logIndex": "0x1",
          "removed": false
        }
      ],
      "logsBloom": "0x00000000000000000020000000000000000000000000000000000000000000000000000000004000000000000000000000000000000000020000000000000000000000000000000000000000000100000000000000000000000000000000000000000000000000000004000000000000000000000000000000000000000000000000000000000000000000080000000000000000200000000000000000000000000000000000000000100000000000004000000400000000000000000000000000000000000000040000000000000000400000000000000000000000000000000000000000000000000000000000000000000000000000000000000000000000",
      "type": "0x2",
      "transactionHash": "0x9c538ba6c1752535563214b170916fa6b31c4e3e7e917a89214663fb819a7e51",
      "transactionIndex": "0x4",
      "blockHash": "0xe36e8b5ea9d3ca21a8e3eaf912847f7ca63160da75a59c2c82b1dcad98c0058a",
      "blockNumber": "0x1c3224b",
      "gasUsed": "0xbe31",
      "effectiveGasPrice": "0xf433a",
      "from": "0xaa6816876280c5a685baf3d9c214a092c7f3f6ef",
      "to": "0xc6d4d9198a2c091f2f9fda4a957b7f7efce26194",
      "contractAddress": null,
      "l1BaseFeeScalar": "0x1db0",
      "l1BlobBaseFee": "0x1",
      "l1BlobBaseFeeScalar": "0xd2730",
      "l1Fee": "0xe6102bd06",
      "l1GasPrice": "0x12eb6f641",
      "l1GasUsed": "0x640"
    }
  ],
  "libraries": [],
  "pending": [],
  "returns": {},
  "timestamp": 1750933570,
  "chain": 11155420,
  "commit": "be5859d"
}