{
  "transactions": [
    {
      "hash": "0x96390533f4cef6690578e9654cf810c702f4127beefa8f3f088a08e12828a885",
      "transactionType": "CALL",
      "contractName": null,
      "contractAddress": "0xaa65ed34f92f5e8e2c2253863dbce0425d6b44b2",
      "function": "setPeer(uint32,bytes32)",
      "arguments": [
        "40231",
        "0x00000000000000000000000008f1785174f56600ba22f8d26067b19f4c3e4231"
      ],
      "transaction": {
        "from": "0xaa6816876280c5a685baf3d9c214a092c7f3f6ef",
        "to": "0xaa65ed34f92f5e8e2c2253863dbce0425d6b44b2",
        "gas": "0x11036",
        "value": "0x0",
        "input": "0x3400288b0000000000000000000000000000000000000000000000000000000000009d2700000000000000000000000008f1785174f56600ba22f8d26067b19f4c3e4231",
        "nonce": "0x44",
        "chainId": "0xaa37dc"
      },
      "additionalContracts": [],
      "isFixedGasLimit": false
    },
    {
      "hash": "0xadeb2d46b1841b6ae28587493271c13dd958909daa106027418c8c1b5c2f864c",
      "transactionType": "CALL",
      "contractName": null,
      "contractAddress": "0xaa65ed34f92f5e8e2c2253863dbce0425d6b44b2",
      "function": "addAuthorizedLocal(uint32,bytes32)",
      "arguments": [
        "40231",
        "0x00000000000000000000000008f1785174f56600ba22f8d26067b19f4c3e4231"
      ],
      "transaction": {
        "from": "0xaa6816876280c5a685baf3d9c214a092c7f3f6ef",
        "to": "0xaa65ed34f92f5e8e2c2253863dbce0425d6b44b2",
        "gas": "0x11656",
        "value": "0x0",
        "input": "0xd808d4050000000000000000000000000000000000000000000000000000000000009d2700000000000000000000000008f1785174f56600ba22f8d26067b19f4c3e4231",
        "nonce": "0x45",
        "chainId": "0xaa37dc"
      },
      "additionalContracts": [],
      "isFixedGasLimit": false
    }
  ],
  "receipts": [
    {
      "status": "0x1",
      "cumulativeGasUsed": "0x16996d",
      "logs": [
        {
          "address": "0xaa65ed34f92f5e8e2c2253863dbce0425d6b44b2",
          "topics": [
            "0x238399d427b947898edb290f5ff0f9109849b1c3ba196a42e35f00c50a54b98b"
          ],
          "data": "0x0000000000000000000000000000000000000000000000000000000000009d2700000000000000000000000008f1785174f56600ba22f8d26067b19f4c3e4231",
          "blockHash": "0x2d2252770e5099f03b6cf19be8753e272ccb4907ff5778f1065eef49b07e4f94",
          "blockNumber": "0x1c37757",
          "transactionHash": "0x96390533f4cef6690578e9654cf810c702f4127beefa8f3f088a08e12828a885",
          "transactionIndex": "0x6",
          "logIndex": "0x13",
          "removed": false
        }
      ],
      "logsBloom": "0x00000000000000000000000000000040000000000000000000000000000000000000000000000000000000000000000000000000000000000800000000000000000000000000000000000000000000000000000000000000000000000000000000000000000000000000000000000000000000000000000000000000000000000000000000000000000000000000000000000000000000000000000000000000000000000000000000000000000000000000000000000000010002000000000000000000000000000000000000000000000000000000000000040000000000000000000000010000000000000000000000000000000000000000000000000000",
      "type": "0x2",
      "transactionHash": "0x96390533f4cef6690578e9654cf810c702f4127beefa8f3f088a08e12828a885",
      "transactionIndex": "0x6",
      "blockHash": "0x2d2252770e5099f03b6cf19be8753e272ccb4907ff5778f1065eef49b07e4f94",
      "blockNumber": "0x1c37757",
      "gasUsed": "0xba21",
      "effectiveGasPrice": "0xf433a",
      "from": "0xaa6816876280c5a685baf3d9c214a092c7f3f6ef",
      "to": "0xaa65ed34f92f5e8e2c2253863dbce0425d6b44b2",
      "contractAddress": null,
      "l1BaseFeeScalar": "0x1db0",
      "l1BlobBaseFee": "0x1",
      "l1BlobBaseFeeScalar": "0xd2730",
      "l1Fee": "0x118",
      "l1GasPrice": "0x10",
      "l1GasUsed": "0x640"
    },
    {
      "status": "0x1",
      "cumulativeGasUsed": "0x1757be",
      "logs": [
        {
          "address": "0xaa65ed34f92f5e8e2c2253863dbce0425d6b44b2",
          "topics": [
            "0x509d7440b5956ceeea2d398b5c802a556c66510a5f4b24b77acef6cf3b9325da",
            "0x0000000000000000000000000000000000000000000000000000000000009d27",
            "0x00000000000000000000000008f1785174f56600ba22f8d26067b19f4c3e4231"
          ],
          "data": "0x",
          "blockHash": "0x2d2252770e5099f03b6cf19be8753e272ccb4907ff5778f1065eef49b07e4f94",
          "blockNumber": "0x1c37757",
          "transactionHash": "0xadeb2d46b1841b6ae28587493271c13dd958909daa106027418c8c1b5c2f864c",
          "transactionIndex": "0x7",
          "logIndex": "0x14",
          "removed": false
        }
      ],
      "logsBloom": "0x00000000000000000000000000000040000000000000000000000000000000000000000000004000000000000000000000000000000000020000000000000000000000000000000000004000000000000000000000000000000000000000400000000000000000000004000000000000000000000000000000000000000000000000000001000000000000000000000000000000200000000000000000000000000000000000000000100000000000000000000000000000010000000000000000000000000000000000000000000000400000000000000000000000000000000000000000010000000000000000000000000000000000000000000000000000",
      "type": "0x2",
      "transactionHash": "0xadeb2d46b1841b6ae28587493271c13dd958909daa106027418c8c1b5c2f864c",
      "transactionIndex": "0x7",
      "blockHash": "0x2d2252770e5099f03b6cf19be8753e272ccb4907ff5778f1065eef49b07e4f94",
      "blockNumber": "0x1c37757",
      "gasUsed": "0xbe51",
      "effectiveGasPrice": "0xf433a",
      "from": "0xaa6816876280c5a685baf3d9c214a092c7f3f6ef",
      "to": "0xaa65ed34f92f5e8e2c2253863dbce0425d6b44b2",
      "contractAddress": null,
      "l1BaseFeeScalar": "0x1db0",
      "l1BlobBaseFee": "0x1",
      "l1BlobBaseFeeScalar": "0xd2730",
      "l1Fee": "0x118",
      "l1GasPrice": "0x10",
      "l1GasUsed": "0x640"
    }
  ],
  "libraries": [],
  "pending": [],
  "returns": {},
  "timestamp": 1750977115,
  "chain": 11155420,
  "commit": "fd07104"
}